:020000040800F2
:1000000000500020218100080181000805810008BE
:10001000098100080D81000811810008000000001E
:100020000000000000000000000000001581000832
:1000300019810008000000001D810008718100087E
:1000400071810008718100087181000871810008C8
:1000500071810008718100087181000871810008B8
:1000600071810008718100087181000871810008A8
:100070007181000871810008718100087181000898
:100080007181000871810008718100087181000888
:100090007181000871810008718100087D7A000873
:1000A0007181000871810008718100087181000868
:1000B000716A0008856C0008718100087181000870
:1000C0007181000871810008718100087181000848
:1000D000718100086D5E000871810008718100085F
:1000E000852D000871810008718100080000000062
:1000F0000000000000000000000000000000000000
:0C01000000000000000000005FF808F1A3
:100110000348044B834202D0034B03B11847704796
:100120007C0000207C0000200000000005480649FB
:100130000B1AD90F01EBA301491002D0034B03B1F5
:10014000184770477C0000207C0000200000000061
:1001500010B5064C237843B9FFF7DAFF044B13B10F
:100160000448AFF300800123237010BD7C00002001
:10017000000000008495000808B5044B1BB1044939
:100180000448AFF30080BDE80840CFE7000000005E
:10019000800000208495000881F0004102E000BF4B
:1001A00083F0004330B54FEA41044FEA430594EA37
:1001B000050F08BF90EA020F1FBF54EA000C55EA72
:1001C000020C7FEA645C7FEA655C00F0E2804FEA43
:1001D0005454D4EB5555B8BF6D420CDD2C4480EA25
:1001E000020281EA030382EA000083EA010180EA55
:1001F000020281EA0303362D88BF30BD11F0004FA3
:100200004FEA01314FF4801C4CEA113102D04042D8
:1002100061EB410113F0004F4FEA03334CEA133313
:1002200002D0524263EB430394EA050F00F0A7802B
:10023000A4F10104D5F1200E0DDB02FA0EFC22FA26
:1002400005F2801841F1000103FA0EF2801843FA1A
:1002500005F359410EE0A5F120050EF1200E012A0B
:1002600003FA0EFC28BF4CF0020C43FA05F3C01849
:1002700051EBE37101F0004507D54FF0000EDCF1C2
:10028000000C7EEB00006EEB0101B1F5801F1BD36B
:10029000B1F5001F0CD349085FEA30004FEA3C0C6F
:1002A00004F101044FEA445212F5800F80F09A8065
:1002B000BCF1004F08BF5FEA500C50F1000041EB69
:1002C000045141EA050130BD5FEA4C0C404141EB6D
:1002D0000101013C28BFB1F5801FE9D291F0000F68
:1002E00004BF01460020B1FA81F308BF2033A3F117
:1002F0000B03B3F120020CDA0C3208DD02F1140C0E
:10030000C2F10C0201FA0CF021FA02F10CE002F148
:100310001402D8BFC2F1200C01FA02F120FA0CFC41
:10032000DCBF41EA0C019040E41AA2BF01EB04518A
:10033000294330BD6FEA04041F3C1CDA0C340EDC88
:1003400004F11404C4F1200220FA04F001FA02F3CB
:1003500040EA030021FA04F345EA030130BDC4F189
:100360000C04C4F1200220FA02F001FA04F340EA7E
:100370000300294630BD21FA04F0294630BD94F02F
:10038000000F83F4801306BF81F480110134013D16
:100390004EE77FEA645C18BF7FEA655C29D094EA87
:1003A000050F08BF90EA020F05D054EA000C04BF05
:1003B0001946104630BD91EA030F1EBF00210020F0
:1003C00030BD5FEA545C05D14000494128BF41F08F
:1003D000004130BD14F580043CBF01F5801130BDF3
:1003E00001F0004545F0FE4141F470014FF000007E
:1003F00030BD7FEA645C1ABF194610467FEA655C2F
:100400001CBF0B46024650EA013406BF52EA0335D0
:1004100091EA030F41F4002130BD00BF90F0000FBE
:1004200004BF0021704730B54FF4806404F13204FA
:100430004FF000054FF0000150E700BF90F0000FB3
:1004400004BF0021704730B54FF4806404F13204DA
:1004500010F0004548BF40424FF000013EE700BFAA
:1004600042004FEAE2014FEA31014FEA02701FBF3A
:1004700012F07F4393F07F4F81F06051704732F06C
:100480007F4208BF704793F07F4F04BF41F40021C3
:10049000704730B54FF4607401F0004521F0004121
:1004A0001CE700BF50EA010208BF704730B54FF0AB
:1004B00000050AE050EA010208BF704730B511F0AC
:1004C000004502D5404261EB41014FF4806404F1E4
:1004D00032045FEA915C3FF4D8AE4FF003025FEA6A
:1004E000DC0C18BF03325FEADC0C18BF033202EBEE
:1004F000DC02C2F1200300FA03FC20FA02F001FA48
:1005000003FE40EA0E0021FA02F11444BDE600BFEA
:100510004FF0FF3C06E000BF4FF0010C02E000BFCF
:100520004FF0010C4DF804CD4FEA410C7FEA6C5CB2
:100530004FEA430C18BF7FEA6C5C1BD001B050EA55
:10054000410C0CBF52EA430C91EA030F02BF90EA40
:10055000020F0020704710F1000F91EA030F58BFFF
:10056000994208BF90422CBFD8176FEAE37040F061
:10057000010070474FEA410C7FEA6C5C02D150EAFF
:10058000013C07D14FEA430C7FEA6C5CD6D152EABA
:10059000033CD3D05DF8040B704700BF844610467F
:1005A00062468C461946634600E000BF01B5FFF77E
:1005B000B7FF002848BF10F1000F01BD4DF808ED4E
:1005C000FFF7F4FF0CBF012000205DF808FB00BF1F
:1005D0004DF808EDFFF7EAFF34BF012000205DF879
:1005E00008FB00BF4DF808EDFFF7E0FF94BF0120C6
:1005F00000205DF808FB00BF4DF808EDFFF7CEFFC7
:1006000094BF012000205DF808FB00BF4DF808ED05
:10061000FFF7C4FF34BF012000205DF808FB00BFD6
:100620004FEA4102B2F1E04324BFB3F5001CDCF114
:10063000FE5C0DD901F0004C4FEAC0024CEA50704C
:10064000B2F1004F40EB830008BF20F0010070477B
:1006500011F0804F21D113F13872BCBF01F000407E
:10066000704741F480114FEA5252C2F11802C2F1B0
:10067000200C10FA0CF320FA02F018BF40F0010031
:100680004FEAC1234FEAD32303FA0CFC40EA0C00E3
:1006900023FA02F34FEA4303CCE77FEA625307D120
:1006A00050EA01331EBF4FF0FE4040F44000704757
:1006B00001F0004040F0FE4040F40000704700BFF1
:1006C00080F0004002E000BF81F0004142001FBF07
:1006D0005FEA410392EA030F7FEA226C7FEA236C10
:1006E0006AD04FEA1262D2EB1363C1BFD218414005
:1006F00048404140B8BF5B42192B88BF704710F09B
:10070000004F40F4000020F07F4018BF404211F03D
:10071000004F41F4000121F07F4118BF494292EAA5
:10072000030F3FD0A2F1010241FA03FC10EB0C00D1
:10073000C3F1200301FA03F100F0004302D549425E
:1007400060EB4000B0F5000F13D3B0F1807F06D30B
:1007500040084FEA310102F10102FE2A51D2B1F103
:10076000004F40EBC25008BF20F0010040EA0300F8
:100770007047490040EB0000013A28BFB0F5000F78
:10078000EDD2B0FA80FCACF1080CB2EB0C0200FA2E
:100790000CF0AABF00EBC25052421843BCBFD0407D
:1007A0001843704792F0000F81F4000106BF80F4F7
:1007B00000000132013BB5E74FEA41037FEA226CBA
:1007C00018BF7FEA236C21D092EA030F04D092F085
:1007D000000F08BF0846704790EA010F1CBF0020B9
:1007E000704712F07F4F04D1400028BF40F0004016
:1007F000704712F100723CBF00F50000704700F036
:10080000004343F0FE4040F4000070477FEA22625C
:1008100016BF08467FEA23630146420206BF5FEA2D
:10082000412390EA010F40F4800070474FF000032D
:1008300004E000BF10F0004348BF40425FEA000CF4
:1008400008BF704743F0964301464FF000001CE09C
:1008500050EA010208BF70474FF000030AE000BFF2
:1008600050EA010208BF704711F0004302D5404230
:1008700061EB41015FEA010C02BF844601460020A2
:1008800043F0B64308BFA3F18053A3F50003BCFABD
:100890008CF2083AA3EBC25310DB01FA02FC63446A
:1008A00000FA02FCC2F12002BCF1004F20FA02F271
:1008B00043EB020008BF20F00100704702F1200264
:1008C00001FA02FCC2F1200250EA4C0021FA02F2C5
:1008D00043EB020008BF20EADC7070474FF0FF0CCA
:1008E0001CEAD0521EBF1CEAD15392EA0C0F93EAC5
:1008F0000C0F6FD01A4480EA010C400218BF5FEA67
:1009000041211ED04FF0006343EA501043EA5111D9
:10091000A0FB01310CF00040B1F5000F3EBF4900D3
:1009200041EAD3715B0040EA010062F17F02FD2AD7
:100930001DD8B3F1004F40EBC25008BF20F00100BA
:10094000704790F0000F0CF0004C08BF49024CEAD1
:10095000502040EA51207F3AC2BFD2F1FF0340EA63
:10096000C250704740F400004FF00003013A5DDCD4
:1009700012F1190FDCBF00F000407047C2F1000215
:10098000410021FA02F1C2F1200200FA02FC5FEA02
:10099000310040F1000053EA4C0308BF20EADC704C
:1009A000704792F0000F00F0004C02BF400010F4BE
:1009B000000F013AF9D040EA0C0093F0000F01F06B
:1009C000004C02BF490011F4000F013BF9D041EA8D
:1009D0000C018FE70CEAD15392EA0C0F18BF93EA8F
:1009E0000C0F0AD030F0004C18BF31F0004CD8D1B9
:1009F00080EA010000F00040704790F0000F17BF40
:100A000090F0004F084691F0000F91F0004F14D085
:100A100092EA0C0F01D142020FD193EA0C0F03D1DD
:100A20004B0218BF084608D180EA010000F00040E0
:100A300040F0FE4040F40000704740F0FE4040F4BB
:100A4000400070474FF0FF0C1CEAD0521EBF1CEA5A
:100A5000D15392EA0C0F93EA0C0F69D0A2EB030278
:100A600080EA010C49024FEA402037D04FF0805312
:100A700043EA111143EA10130CF000408B4238BFD7
:100A80005B0042F17D024FF4000C8B4224BF5B1AE5
:100A900040EA0C00B3EB510F24BFA3EB510340EA33
:100AA0005C00B3EB910F24BFA3EB910340EA9C00E1
:100AB000B3EBD10F24BFA3EBD10340EADC001B0151
:100AC00018BF5FEA1C1CE0D1FD2A3FF650AF8B42F5
:100AD00040EBC25008BF20F0010070470CF0004C02
:100AE0004CEA50207F32C2BFD2F1FF0340EAC2502D
:100AF000704740F400004FF00003013A37E792F0EE
:100B0000000F00F0004C02BF400010F4000F013A4B
:100B1000F9D040EA0C0093F0000F01F0004C02BF46
:100B2000490011F4000F013BF9D041EA0C0195E7AF
:100B30000CEAD15392EA0C0F08D142027FF47DAF48
:100B400093EA0C0F7FF470AF084676E793EA0C0F38
:100B500004D14B023FF44CAF08466EE730F0004C36
:100B600018BF31F0004CCAD130F000427FF45CAFC6
:100B700031F000437FF43CAF5FE700BF4FF0FF3C34
:100B800006E000BF4FF0010C02E000BF4FF0010C87
:100B90004DF804CD4FEA40024FEA41037FEA226C50
:100BA00018BF7FEA236C11D001B052EA530C18BF72
:100BB00090EA010F58BFB2EB030088BFC81738BFD7
:100BC0006FEAE17018BF40F0010070477FEA226CC5
:100BD00002D15FEA402C05D17FEA236CE4D15FEAC1
:100BE000412CE1D05DF8040B704700BF84460846F5
:100BF0006146FFE70FB5FFF7C9FF002848BF10F1B6
:100C0000000F0FBD4DF808EDFFF7F4FF0CBF0120FA
:100C100000205DF808FB00BF4DF808EDFFF7EAFF84
:100C200034BF012000205DF808FB00BF4DF808ED3F
:100C3000FFF7E0FF94BF012000205DF808FB00BF34
:100C40004DF808EDFFF7D2FF94BF012000205DF8BA
:100C500008FB00BF4DF808EDFFF7C8FF34BF0120C7
:100C600000205DF808FB00BF4FEA40024FEA410355
:100C70007FEA226C02D15FEA402C08D17FEA236C24
:100C800002D15FEA412C02D14FF0000070474FF0D3
:100C9000010070474FEA4002B2F1FE4F0FD34FF010
:100CA0009E03B3EB12620DD94FEA002343F00043D9
:100CB00010F0004F23FA02F018BF404270474FF087
:100CC0000000704712F1610F01D1420205D110F00E
:100CD000004008BF6FF0004070474FF000007047C1
:100CE00042000ED2B2F1FE4F0BD34FF09E03B3EB96
:100CF000126209D44FEA002343F0004323FA02F0C2
:100D000070474FF00000704712F1610F01D14202AD
:100D100002D14FF0FF3070474FF00000704700BF26
:100D2000034B40F0BF6040F40030D860704700BF14
:100D300000ED00E030B501240178C37801F01F0216
:100D40004FEA511C9440C3B10F4B0F25DA6890F85D
:100D500001E0D2438378C2F30222D540C2F10402FB
:100D60002B400EFA02F2094813431B010144DBB287
:100D700081F8003340F82C4030BD044B0CF1200CBE
:100D800043F82C4030BD00BF00ED00E000E100E082
:100D9000037930B48279046803F18043E14303F5B9
:100DA0008233F2B1154A15680D4015605568294027
:100DB000516019680C431C609168036821EA0301C3
:100DC0009160D16821EA0301D160417910290DD0E9
:100DD00030BC01F1804202F5823211680B4313608E
:100DE00070471A6830BC114019607047916830BC78
:100DF00019439160D1680B43D360704700040140F0
:100E0000054B024619685B69184003D0114214BFB4
:100E100001200020704700BF00040140014B5861D1
:100E2000704700BF00040140024B0349034A596068
:100E30005A6070470020024023016745AB89EFCD1F
:100E4000334AD368DB0707D4D36859074BD4D36838
:100E5000DB0612D5032070474FF43023D1689C463F
:100E6000C90703F1FF332ED4D16849072FD4D268C4
:100E7000D20632D4BCF1010F27D0254A136943F0C2
:100E8000020313615061136943F040031361D36897
:100E9000D9072AD54FF43023D168013BC9072ED496
:100EA000D16849072FD4D26812F0100F0CBF04206C
:100EB0000320002B08BF052041F6FD71144A136979
:100EC0000B4013617047002BC8D105207047002BE1
:100ED0004FF0020008BF05207047002B4FF00300C1
:100EE00008BF0520704702207047D3685B070CD409
:100EF000D36813F0100F14BF03200420DCE7002B8D
:100F0000CAD10520D8E70220D3E70220D4E700BFEA
:100F100000200240314A10B4D368DB0708D4D368FC
:100F20005C0746D4D368DB0613D5032010BC70479A
:100F30004FF40053D4689C46E40703F1FF332BD4ED
:100F4000D46864072DD4D268D40630D4BCF1010F24
:100F500024D0224A136943F0010313610180D3684E
:100F6000D90729D54FF40053D168013BCC072DD4C4
:100F7000D16849072ED4D26812F0100F0CBF04209C
:100F80000320002B08BF052041F6FE71134A10BC58
:100F900013690B4013617047002BCBD1052010BCA7
:100FA00070470220002B08BF052010BC70470320AB
:100FB000F8E7022010BC7047D3685B070CD4D368F5
:100FC00013F0100F14BF03200420DDE7002BCBD15A
:100FD0000520D9E70220D4E70220D5E7002002400F
:100FE00000B591F803C01CF0100F18BF8B780CF0FF
:100FF0000F0E18BF4EEA030E0B88DAB2002A36D065
:10100000BCF1480F026800F0B380BCF1280F00F07B
:101010003A81D90744BF22F00F024EEA0202990733
:1010200044BF22F0F00242EA0E12590744BF22F4F4
:10103000706242EA0E22190744BF22F4704242EA6B
:101040000E32D90644BF22F4702242EA0E429906BB
:1010500044BF22F4700242EA0E52590644BF22F005
:10106000706242EA0E62190600F10A810260FF2BEB
:101070004AD9BCF1480F426848D1D90506D54FF48A
:10108000807122F00F024EEA02020161990506D535
:101090004FF4007122F0F00242EA0E12016159058C
:1010A00006D54FF4806122F4706242EA0E2201619B
:1010B000190506D54FF4006122F4704242EA0E325F
:1010C0000161D90406D54FF4805122F4702242EA1E
:1010D0000E420161990406D54FF4005122F47002CA
:1010E00042EA0E520161590406D54FF4804122F0C4
:1010F000706242EA0E6201611B0404D54FF40043A2
:101100006EF31F72036142605DF804FBBCF1280FAF
:101110006ED0D90544BF22F00F024EEA02029905B3
:1011200044BF22F0F00242EA0E12590544BF22F4F5
:10113000706242EA0E22190544BF22F4704242EA6C
:101140000E32D90444BF22F4702242EA0E429904BE
:1011500044BF22F4700242EA0E52590444BF22F006
:10116000706242EA0E621B04CDD56EF31F72CAE7AD
:10117000D90705D5012122F00F024EEA02020161D2
:10118000990705D5022122F0F00242EA0E12016110
:10119000590705D5042122F4706242EA0E2201614A
:1011A000190705D5082122F4704242EA0E32016186
:1011B000D90605D5102122F4702242EA0E420161BF
:1011C000990605D5202122F4700242EA0E520161EF
:1011D000590605D5402122F0706242EA0E62016193
:1011E00019067FF543AF80216EF31F7201613DE761
:1011F000D90506D54FF4807122F00F024EEA0202A3
:101200004161990506D54FF4007122F0F00242EADF
:101210000E124161590506D54FF4806122F47062C7
:1012200042EA0E224161190506D54FF4006122F40D
:10123000704242EA0E324161D90406D54FF4805122
:1012400022F4702242EA0E424161990406D54FF41D
:10125000005122F4700242EA0E524161590406D54F
:101260004FF4804122F0706242EA0E6241611B0439
:101270007FF549AF4FF400436EF31F72436142E7BD
:101280006EF31F72F2E6D90705D5012122F00F0295
:101290004EEA02024161990705D5022122F0F002CF
:1012A00042EA0E124161590705D5042122F4706209
:1012B00042EA0E224161190705D5082122F4704245
:1012C00042EA0E324161D90605D5102122F470227E
:1012D00042EA0E424161990605D5202122F47002AE
:1012E00042EA0E524161590605D5402122F0706252
:1012F00042EA0E62416119067FF5B8AE80216EF3B5
:101300001F724161B2E600BF806880B2704700BFC3
:10131000C06880B2704700BF01617047416170478B
:101320000AB1016170474161704700BF00281A4B44
:1013300000F44012B4BFDB695B68B2F5401F10B423
:101340001FFA80FC1FD0C20214D50322C0F303444D
:10135000A24023EA020343F0706321B1420D12015F
:101360000CFA02F213430C4A002810BCB4BFD3613C
:1013700053607047420D12010CFA02F223EA020395
:1013800043F07063E9E7044C23F07063626822F075
:1013900070626260E1E700BF000001404FF00F0C97
:1013A00001F0FC0303F1804303F5803301F00301F6
:1013B0009A6889000CFA01FC22EA0C029A609A6889
:1013C00088401043986070471E4A10B4536803F079
:1013D0000C03082B21D01C4A13460260194A1B4CEF
:1013E0005168C1F30311615CCB4043605168C1F3A4
:1013F0000221615C23FA01F181605168C1F3C221CD
:10140000645C1349E340C360526810BCC2F381328C
:101410008A5CB3FBF2F30361704753685168C3F30E
:101420008343C90303F1020307D55268920304D42E
:10143000054A02FB03F30360D0E7064A02FB03F30D
:101440000360CBE70010024000127A000400002085
:101450000000002000093D00044A936911B11843BF
:101460009061704723EA00009061704700100240CD
:10147000284A0388904210B49BB212D002F5006251
:1014800090420ED0B0F1804F0BD0A2F5983290422E
:1014900007D002F58062904203D002F5806290424C
:1014A00003D14A8823F0700313431B4CB1F804C0E6
:1014B000A0420A8815D004F58064A04211D0CC88DF
:1014C00023F440739BB223430380124BA0F82CC03B
:1014D000984202850DD10B7A10BC038601238382CA
:1014E00070470380A0F82CC00285012310BC8382C2
:1014F00070470A4B9842EED003F540639842EAD019
:1015000003F580639842E6D003F580639842E2D009
:10151000EBE700BF002C0140001000400034014008
:10152000038C30B523F001031B041B0C0384038CD4
:10153000B1F808E0B0F804C04D88028B23F0020334
:101540001B044EEA050E1C4C1B0C22F0730243EAEE
:101550000E031204B1F800E0120CA0421FFA8CFC3A
:101560009BB242EA0E020FD004F50064A0420BD0F9
:1015700004F54064A04207D004F58064A04203D083
:1015800004F58064A04210D14C8923F00803234362
:10159000CD898C892CF4407C2C434CEA040C8C883B
:1015A00023F004031FFA8CFC2343C988A0F804C06D
:1015B00002838186038430BD002C014000234FF656
:1015C000FF72036042600372704700BF038821B15D
:1015D0009BB243F001030380704723F001031B0417
:1015E0001B0C0380704700BFB0F8443039B16FEA7C
:1015F00043436FEA53439BB2A0F844307047C3F3B0
:101600000E03A0F84430704783899BB212B119438E
:101610008181704723EA010181817047038B23F0A8
:1016200008031B041B0C0B4303837047C94389B297
:101630000182704730B504460D46238ACA889BB2A2
:1016400023F4405313438A892382A389898823F48E
:10165000B05323F00C031B041B0C0B43298987B0E8
:101660000B43698901A80B439BB2A381A38A9BB258
:1016700023F440731343A382FFF7A6FEDDE9033191
:1016800018482A68844208BF0B46A18903EB8303EC
:1016900008044CBF5200920003EB8303B3FBF2F348
:1016A00064251148A0FB0321490905FB11330A01F8
:1016B000A18909040AD41B013233A0FB0313C3F32D
:1016C000431313439BB2238107B030BDDB00323399
:1016D000A0FB0313C3F3421313439BB2238107B050
:1016E00030BD00BF003801401F85EB51838921B117
:1016F0009BB243F400538381704723F400531B04CF
:101700001B0C8381704700BF012301F01F0CC1F344
:101710004211012903FA0CF30DD002290CBF10303D
:1017200014301AB10268134303607047026822EA5A
:101730000303036070470C30F3E700BFC1F30801F7
:101740008180704770B541F203061025104C82B0BD
:1017500001210820FFF780FE204601A9ADF80660B0
:10176000ADF80450FFF73CFC01210820FFF774FEA0
:101770000823204601A9ADF80430ADF80660FFF754
:101780002FFC29462046FFF7C9FD02B070BD00BFFF
:10179000000C014008B50348FFF7BAFDC0F3001084
:1017A00008BD00BF000C014010210148FFF7B6BD85
:1017B000000C014010B5094C637823B920B14306F1
:1017C00007D40023237310BD10210548FFF7A6FDA1
:1017D000F7E710210248FFF79FFDF2E71C05002004
:1017E000000C014038B50D4D2B78022B09D0044672
:1017F00003F020FD6B7823B94CB1630602D40023BB
:101800002B7338BD10210648FFF786FDF7E710213E
:101810000348FFF783FD00232B73F2E71C0500202C
:10182000000C014010B40D4C2346C4F1006104F5D6
:10183000806001F5FE315A18127803F8012B8342BB
:10184000F9D123780A2B06D04FF48062FF21034898
:1018500010BC06F0C3BC10BC704700BF980000204D
:10186000014B185C704700BF98000020014B1954D1
:10187000704700BF98000020F8B50746C2B30023A8
:10188000DFF874C0441E64448E1811F8015B43BB3A
:1018900005EBD3138E4204F8015FDBB2F5D1174498
:1018A00016480CF80730FFF7CBFA042818D14FF68A
:1018B000FF76134D114C134F35F8041CB14202D082
:1018C0002046FFF727FB35F8021CA01CB14205F1AA
:1018D000040504F1040401D0FFF71CFBBC42EBD16A
:1018E000F8BD6B1C8E4204F8015FDBB2CDD1D6E7A8
:1018F0001346DFF804C0D3E79800002000FC01087D
:101900009C0000200000020830B5F2B10023104D09
:1019100001F1FF3EAE4484181EF801CF6BB900F808
:1019200001CB0CEBD313A042DBB2F5D11144685CC0
:10193000C01AB0FA80F0400930BD00F801CB0CF1BC
:1019400001038442DBB2E7D1F0E71346004DEEE736
:1019500098000020002108B54422074806F03EFC0C
:101960000020064904F04CFC00B108BD0720BDE88A
:10197000084003F07BBC00BFD80400200005002015
:101980000149024806F078BA30050020F40400202E
:101990002DE9F04F0646864F00214022384699B087
:1019A00006F01CFC834B03CB1A889B78C7F8010018
:1019B000C7F80510A7F80920FB723478242C07D04B
:1019C00000238DF84330002C00F0E283099308E0F7
:1019D0000122F4780323A7F80120002C00F0D6831D
:1019E00009924FF00008B24645462646CDE90688E2
:1019F000DFF8C491CDF82080A6F14102192A00F247
:101A000073830133504611AA0DF143018DF8433021
:101A100001F040FF002800F06983DDF844B058462B
:101A200006F00CFDFFF75CF9C4B22046FEF702FF9A
:101A300001465846FEF748FE4946FEF74FFF06F0BE
:101A400091FC472E82B200F0BB804D2E2CD0463E3A
:101A5000142E24D8DFE816F0070223002300FE012D
:101A600015020C021E022300B1012300E501230030
:101A7000D801D201C401230023002300F401EA01AC
:101A8000A101079B002B40F08E86262C7C7040F035
:101A90008C83A2F114039BB21E2B40F23F831423CC
:101AA000184619B0BDE8F08F002A40F02D831E2C97
:101AB000F5D801A353F824F0351B0008351B0008A6
:101AC000351B00084B1B00084B1B00084B1B000874
:101AD0009F1A00089F1A0008631B0008631B000878
:101AE0009F1A00089F1A00089F1A00089F1A0008F2
:101AF0009F1A00089F1A00089F1A00089F1A0008E2
:101B00009F1A00089F1A00089F1A00089F1A0008D1
:101B10009F1A00089F1A00089F1A00089F1A0008C1
:101B20009F1A00089F1A00089F1A00089F1A0008B1
:101B3000351B0008002C00F0D182012C00F004813C
:101B40004FF400620B233C7213E0042C00F0D682A9
:101B5000052C40F0CD8200234FF48052BB720C2341
:101B600007E0092C14BF402300234FF400527B727E
:101B70000D2345FA03F3DC0700F1158315439DF8A7
:101B800043301AF80360002E7FF436AF069B23B172
:101B9000079B002B08BF0223079318F0200F00F0CB
:101BA000AA81064B3A6A9A4240F3A5811B2377E744
:101BB00098040020D80400200000C84280969800B5
:101BC0005E2C3FF66CAF01A353F824F0831A000893
:101BD000831A0008831A0008831A0008E51E00080B
:101BE0009F1A00089F1A00089F1A00089F1A0008F1
:101BF0009F1A0008711D00089F1A00089F1A00080C
:101C00009F1A00089F1A00089F1A00089F1A0008D0
:101C10009D1E00089D1E00089D1E0008C31E000892
:101C2000C31E00089F1A00089F1A00089F1A000888
:101C30009F1A00089F1A00089F1A0008711D0008CB
:101C40009F1A0008711D00089F1A00089F1A0008BB
:101C50009F1A00089F1A00089F1A00089F1A000880
:101C60009F1A0008831A00089F1A000867210008BD
:101C70009F1A00089F1A0008A51E00089F1A000856
:101C80009F1A00089F1A00089F1A00089F1A000850
:101C9000A51E00089F1A00089F1A00089F1A000836
:101CA000E51E0008511D0008511D0008511D0008C7
:101CB000511D0008511D0008511D00089F1A000801
:101CC000D32000089F1A00089F1A00089F1A0008D6
:101CD0009F1A00089F1A00089F1A00089F1A000800
:101CE0009F1A00089F1A00089F1A00089F1A0008F0
:101CF0009F1A00089F1A00089F1A00089F1A0008E0
:101D00009F1A00089F1A00089F1A0008CB2000089D
:101D10009F1A00089F1A00089F1A00089F1A0008BF
:101D20009F1A00089F1A00089F1A00089F1A0008AF
:101D30009F1A0008D71E0008D71E0008711D000852
:101D4000CD1E0008CD1E00084FF400620B2310E7E3
:101D50000921363CFC71002A40F0D68145FA01F396
:101D6000DE0700F1208201238B401D43ADB206E760
:101D7000002A40F09B81079B002B40F014851C2C0F
:101D80003C7000F0F2811E2C00F0EF815C2C00F022
:101D9000EC81194601230793E0E7069B4FF480543A
:101DA00043F004030693119BFB630C2348FA03F3EF
:101DB000DE0731D444EA0808E1E6119E20243046CB
:101DC000FEF768FF0523386248FA03F3D80723D4E7
:101DD00030460021FEF720FF0028EBD004235FE609
:101DE000119EAB493046FEF735FF002840F0EB85E9
:101DF00087F8304009234FF40074E5E7119E4FF453
:101E000080740823FE62DFE7119B8024BB620723F6
:101E100048FA03F3DE07CDD51923184619B0BDE8FB
:101E2000F08F119E402406237E62CDE7069B4FF47F
:101E3000006443F002030693119BBB630B23B5E7D9
:101E4000069B4FF4806443F001030693119B7B6370
:101E50000A23ABE7089B022443F001030893119B7C
:101E60003B610123A2E7119E01240023FE60ABE742
:101E7000089B082443F004030893119BBB610323D0
:101E800094E7089B042443F002030893119B7B61B1
:101E900002238BE73C770423102487E7113C0221BF
:101EA0007C7158E7079B002B40F07D84312C03D0D8
:101EB0000A2A7FF4F4AD0123BB71032308210793A1
:101EC0004CE7C4F115040621FC7044E7C4F15E043C
:101ED0000521BC703FE7002A40F018815A3C0321DD
:101EE0003C713BE71C2C3C7000F0E7801E2C00F09E
:101EF000E48000212FE7099B002B00F01F8118F0E0
:101F0000010F00F04381FB78012B05D1F86861498E
:101F10000993FEF7E3FCF86018F4807F02D15E4B72
:101F2000DB68FB6297F80090B9F1040F00F04B8179
:101F300097F805A0BAF1000F00F07281BAF1010F15
:101F400040F0378102230024CDF830A005269A46C0
:101F50000A930B94FA78012A00F03E81079B032B29
:101F600000F054814D4B93E8070012AB83E8070063
:101F7000AB050FD5F879062800F2F982464B9A791D
:101F8000824207D012A904F03BF9002800F008842F
:101F900097F80090B9F10A0F00F07C81B9F15C0F5D
:101FA00000F04681079B032B22D0069B03B33A79AE
:101FB000002A00F07684D90700F1BD84364AD26940
:101FC0007A639A0740F16885B9F1350F00F0D6833E
:101FD000314BB96B186AFEF779FB069BB86359075A
:101FE00040F1BE842C4BF96B586AFEF76FFBF86327
:101FF000B9F11E0F00F0E583B9F1350F00F0C2838F
:10200000B9F11C0F00F0C78397F80190B9F1500F98
:1020100040F0BE83069B002B40F0A784099A0D93E5
:10202000002A00F0778128F021081FFA88F3079929
:1020300019B123F4E0581FFA88F3002B40F06E81A9
:10204000CDE915331793002A00F07C8125F049056E
:10205000002D40F0AB833B78352B02D0002B40F0B5
:10206000A5830D4A15A8117A537AD2680B430C49FF
:102070008DF85C30169200F0D3FD034600287FF403
:102080000FAD084C084A07CA84E8070008E500BFFE
:1020900000007F433333CB41D804002000050020EB
:1020A00098040020F4040020CC0400201C2C3C7078
:1020B00008D01E2C06D05C2C26D11AB92044002151
:1020C00038704BE60A2AF9D0E9E4502301217B70ED
:1020D00041E6002A7FF4E3AC0A213FE603234FF4F4
:1020E00000623B720B2344E50123D9E40223D7E4C9
:1020F00010234FF48052BB720C233AE520234FF497
:102100008052BB720C2334E51723C9E40A2A7FF4FA
:10211000C6AC5A2C3FF4C3AC04211FE6834921FA14
:1021200003F3DB077FF5BBAC814B0121A3FB02234B
:10213000DB08763B7B70022307930FE6BB78012B0D
:1021400016D07C4B5B78099353BB18F0010F00F05D
:102150000283FB78012B7FF4DFAEF8687649FEF747
:10216000BDFBF860D8E60721F5E501230793A5E755
:10217000079B022B14D17B78502B3FF4CDAE002B64
:102180003FF4CAAE18F0010F7FF4C6AE162387E401
:10219000BB78A046012B2546CDE906440894D0D152
:1021A00000230993B8E615237AE40223012107935B
:1021B000D1E502244FF0010A00230626CDE90B43A6
:1021C000CDF828A0C6E618F0400F00F0D68128F020
:1021D00040081FFA88F8ABE6069BD80704D5786B51
:1021E0005549FEF77BFB7863069B990704D5B86BCE
:1021F0005149FEF773FBB863069B5A077FF5AEAEF5
:10220000F86B4D49FEF76AFBF863A7E6BA79012A35
:102210007FF4A8AE069B042B3FF4A4AE25233FE435
:10222000012402230326CDE90B43CDF828A091E633
:10223000069B002B00F09E81DA0700F168823D4B7F
:102240005B6B7B63069B9B0700F18A82394B9B6B20
:10225000BB63069A5007C2F3800362D5354B1499CD
:102260009946586AFEF730FAF96BFEF72DFAD9F85D
:102270004010FEF729FA0023F8630D9397F80190B8
:10228000B9F1500F00F07183079B022B00F086819B
:10229000099AC5E6069B002B00F06C8118F0500FE0
:1022A00000F06B81786A06F0C9F8FEF719FDC3B239
:1022B000062B00F25C813A7F142A06D0022A7FF4B2
:1022C000EEAB18F0800F7FF4EAAB28F050081FFA4D
:1022D00088F8002B00F02B83013BDBB218460D93EE
:1022E000164903F08DFF002800F05A823B7F142B23
:1022F000069B00F08C83D80744BF7B6B3B61069B39
:10230000990744BFBB6B7B61069B5A07B6D5FB6B35
:10231000BB61B3E70A4B08EA030388E62423FFF70F
:10232000BFBB0D93034BDB6BFB63A7E701041040BE
:10233000CDCCCCCCD80400203333CB41A804002032
:10234000DEFCFFFF8E4B93F848508E4B15F00205D4
:102350005C7A13D07B78013B022B03D9099B43F0B5
:1023600040030993069B1BB1079B022B00F084835B
:10237000099B102C03F0400500F02B833B6A814A37
:102380009361BB78537013B108238DF85C307D4A9C
:10239000FB68D668D7F82C80304641461361159308
:1023A000FEF730FC002800F0C381099B9A0600F17B
:1023B000BF81B0460DB9CDF85880B87A97F8303063
:1023C000704DA0422B7504D0169904F03FFABC7AE8
:1023D0006C729DF85C30787A1C436A4B8DF85C40D7
:1023E0001B7A834200F0A281FFF7FCF97B7A654AF1
:1023F000002B40F096819DF85C4013723B788DF87D
:102400005C40042B00F0DB827B795E4A1371FB7821
:102410009370079B032B00F031825A49FB798A792C
:102420009A4208D08B7112AB93E80700564B83E8B1
:10243000070005F017FD3B79524AD3703B78282BF3
:1024400016D8092B22D90A3B1E2B1FD8DFE803F030
:10245000731E1E1E1E1E1E1E1E1E1E1E1E1E1E1E47
:102460001E1E5E1E5E1E1E1E1E1E1E1E8A1E850057
:102470005C2B00F0C082662B08D10023434A136016
:10248000C2E90133A2F1340105F0ECFC7B783D4A4E
:10249000502B137003D0079A022A00F069823B7A0E
:1024A000384AD371002B3FF4FBAA02F0C3FE354B30
:1024B000DB79032B00F0D58246F2644064220024CD
:1024C0000121334B18819A721B782E48022BA0F8F9
:1024D00003400180847104810FD020462A4903F013
:1024E0008FFE002800F05C8105F0BCFC2046002136
:1024F00004F01EF92046FFF75DF9082002F0E4FE23
:10250000002220491346CA71FFF7CABA9DF85C3011
:1025100043F001038DF85C30079B002B40F0FB82F9
:102520001C4D1D4C284615A900F00EFF95E807002C
:1025300084E80700AAE70D9D164C2846214603F0C3
:102540008FFD104B9B79AB42A0D194E807000E4B56
:1025500083E8070005F086FC98E707200E4903F0A2
:102560007FFD93E706200C4903F07AFD8EE71D23DB
:10257000FFF796BA1A23FFF793BA1C23FFF790BA16
:10258000140E0020D8040020000500200C050020B7
:102590001C050020A8040020F4040020B9F1000F5D
:1025A00000F007810021F868FEF72CFB00287FF47B
:1025B000EDADB9F1030F0DD000F22881B9F1010F93
:1025C00000F0F780B9F1020F7FF462AE099B43F08F
:1025D00004030993069B002BCCD0334200F0FA820F
:1025E0000A9ADFF8849207EB8203586B09EB8203A7
:1025F000D969FEF769F8034607EB8402506B09EBD3
:102600008402D1690E93FEF75FF818F080038146CB
:1026100000F098820C229549954805F0CFFD0028DE
:1026200000F0D282FB78012B04D1B86A9149FEF701
:1026300055F9B862BE6A4FF081413046FEF74EF957
:102640003146FEF74BF9DDF838B006465946584694
:10265000FEF744F901463046FEF736F8494606468D
:102660004846FEF73BF901463046FEF72DF80021BB
:102670000646FEF7D1FA002840F0A982304605F060
:10268000F7FE49460646584601F0E0F9014606F1D4
:102690000040FEF7D7F97B780646032BBB6A08BFDC
:1026A00000F10046002118460893FEF7B5FA28B15C
:1026B000089B06F1004603F10043BB620A9B4946B2
:1026C0000233304607EB830BFEF708F901460E98FC
:1026D000FDF7FAFF4FF07C51FEF700F90E99CBF8A9
:1026E00008003046FEF7FAF84946FDF7EFFF4FF0D5
:1026F0007C51FEF7F3F80234099B28F0800807EBC1
:1027000084041FFA88F8A06003F0010288E4564BA5
:102710001299D869FDF7D8FF796BFDF7D5FF78637B
:1027200090E5147A1C439DF85C3014721C4365E6F6
:102730006CB1099B1B060AD4002D00F0A481204631
:10274000002104F083F8484BD7F82C805C7A464B84
:10275000C3F80C802EE6444B1B69FB60FFF7DCBB23
:10276000414B1399186AFDF7AFFFB96BFDF7ACFF4A
:10277000B8636EE5069B9B0740F18E81069B590767
:1027800040F1EE8097F80190B9F1010F00F2148149
:1027900000230D9378E50620374903F031FDB0B9E9
:1027A0000723FFF77DB91823FFF77AB91023FFF746
:1027B00077B9069B099A002B079B08BF0023079354
:1027C0002EE407202C4903F01BFD0028E8D0069BCF
:1027D000002B00F0EC8003F001020D925A100E92D3
:1027E0004FEAA30B0D9B13B91F4BDB693B610E9B9B
:1027F000D90702D41C4B1B6A7B611BF0010F02D16D
:10280000194B5B6ABB6100230D9337E509F1740333
:10281000DBB2032B3FF63CADA9F18C03032B3FF653
:1028200037ADDFE803F006020602099B43F0100310
:10283000099309F17203DBB2012B03D8099B43F022
:1028400008030993069B002B3FF494AE0C22074922
:10285000074805F0B3FC002800F0B681099B03F09F
:102860000102FFF7DDBB00BFD8040020CC0400202C
:10287000F40400203333CB41A8040020BB7953710A
:10288000002B00F0A380FC6BA74B2146186CFEF7D1
:10289000B9F900287FF4C1ADA34B1C6405F0E2FA3E
:1028A000BBE503F001020D92DA0740F1A080B9F117
:1028B000350F08D09C4B1299586BFDF707FF796BC9
:1028C000FDF704FF7863069B5A109B070E9240F1B8
:1028D0009A80B9F1350F08D0934B1399986BFDF797
:1028E000F5FEB96BFDF7F2FEB863069B58074FEA99
:1028F000A30B35D5B9F1350F3FF444AF8A4B14988B
:10290000D96BFDF7E3FEF96BFDF7E0FE864B196C22
:10291000FDF7DCFEB9F11E0FF8637FF471AB072001
:10292000824903F06DFC00287FF45CAF38E7FB7947
:1029300018460D93D4E4B9F1350F3FF41BAF7A4B31
:10294000796BD869FDF7C2FE069B78639B073FF55C
:102950003FAB754B1A6A069BBA635A073FF542AB09
:10296000714B5A6AFA63FFF743BB1F23FFF798B80E
:10297000012B00F0C980002B00F0B980023B012B35
:1029800040F29F809DF85C30694D43F00403284677
:10299000099A15A98DF85C3000F0E4FE002840F09B
:1029A0008880644C95E8070084E8070077E5099A79
:1029B0000D930793FFF734BB1E23FFF771B8786AB6
:1029C00000F09CFE20E52623FFF76AB80024FC6394
:1029D0005AE7554B1B78013B022B00F2A180002DDA
:1029E0003FF4CCAC099B43F020030993C6E44E4B63
:1029F000DA697A6367E7504B4D4A07CA83E80700F4
:102A000005F030FA42E5484B1A6ABA636DE7DB0716
:102A100008D5454B596BD869FDF756FE796BFDF724
:102A200053FE3861069B980708D53F4B996B186A8F
:102A3000FDF74AFEB96BFDF747FE7861069B590723
:102A40007FF51CAC384B9946D96B586AFDF73CFEB4
:102A5000F96BFDF739FED9F84010FDF735FEB86186
:102A60000CE4364B1B78022B3FF44AAD082005F0EE
:102A70007FFA02F021FB43E5099B03F0400543F098
:102A8000800309937AE44146204603F0DFFE264B9B
:102A9000D7F82C805C7A5AE6234B1A6A069BBA63F5
:102AA00058077FF55DAFB9F1350F3FF46BAEFFF717
:102AB00099BA01287FF4F3AC21491E4805F0DCF9EE
:102AC000EDE40C9B1A4D03930B9B1A4C0293099B4C
:102AD0002846C3F380030493BB6A2246009315A9DA
:102AE000CDF804A0A5F1240300F062FC5AE79DF89C
:102AF0005C300F4D43F00103284615A98DF85C307A
:102B00000C4C00F021FC4DE7094D15A9284600F0BA
:102B10001BFC084C46E7064815A900F015FCFFE42D
:102B2000002D7FF42BAC5DE7D8040020A804002022
:102B3000CC040020F40400200C0500201C0500201B
:102B400030050020089A32425FD0FA7828F00E084B
:102B5000012A1FFA88F840D0023407EB8406B168D6
:102B60004846FDF7B1FD81460A9C0E98023407EBFA
:102B70008404A168FDF7A8FD494600F067FF0346FD
:102B8000B168A0681C4600F061FF06462046314649
:102B9000BE62FDF799FD20F0004420461C49FEF777
:102BA00059F800283FF45AAE20464FF07C51FEF70A
:102BB00051F848B917493046FDF790FE2146FEF717
:102BC0002BF800283FF44AAE2123FEF769BF2223E9
:102BD000FEF766BF2023FEF763BF1E460E4B0F496C
:102BE0009B46089B334113F0010F06F1010607D005
:102BF000DBF800000F91FDF771FE0F99CBF8000094
:102C0000032E0BF1040BECD1A6E72323FEF748BFFC
:102C10000AD7A33B6F12833AA80400203333CB4179
:102C20000B4670B50546027AD86842F00402134993
:102C300028602A7291F8482003F13404930603D5E2
:102C4000204605F037F9A8B90D4E2046294600F078
:102C50007BFB347814B10024204670BD01F0D0F81D
:102C60000028F8D02023337004F0C2F903F07EFE70
:102C7000204670BD0F24204670BD00BF140E0020FA
:102C80001C05002030B5012185B00920FEF7E4FBCA
:102C90004FF4E04444F603031E4D69461E48ADF868
:102CA0000230ADF80040FEF79BF995F848301B075D
:102CB00006D44FF48072194BC3F8842005B030BDA0
:102CC000642000F0B3FE0C210120FEF767FB0D210C
:102CD0000120FEF763FB0E210120FEF75FFB95F854
:102CE0004830002113F0400F14BF08220C220123AA
:102CF00002A88DF80C108DF80D208DF80E3002947E
:102D0000FEF746F8064B01A80193FEF713F805B04D
:102D100030BD00BF140E0020000C014000E100E0B7
:102D2000280202014FF48072014BC3F884207047DF
:102D300000E100E008B51048FEF7E6FA0F4B93F803
:102D40004820034652065CBF80F4E0439BB28BB13F
:102D50000B4A10885188034218BF0120928808BF8F
:102D600000200B4218BF40F00200134201D040F097
:102D7000040008BD184608BD000C0140140E0020D8
:102D80009C97000808B54FF48050FEF739F838BB1F
:102D90004FF40050FEF734F8E8B94FF48040FEF7E6
:102DA0002FF898B94FF48071104A114BC2F8841172
:102DB0001B78012B02D00F4B1B7803B108BD00F02C
:102DC00039FDBDE80840012005F0E6B84FF4804029
:102DD000FEF724F8E6E74FF40050FEF71FF8DCE7B3
:102DE0004FF48050FEF71AF8D2E700BF00E100E090
:102DF0001C0500204A0500202DE9F04FDFF89482E1
:102E00008FB098F80130049013B10FB0BDE8F08F87
:102E100004460621A04A0A93CDE908339388106836
:102E2000ADF81C3014F00103069004F001098DF890
:102E30002810059300F07681984F9949786AFDF73C
:102E40004DFD00218246FDF7E7FE002840F072812B
:102E5000049BC3F340029D0703920AD59049B86AC8
:102E6000FDF73CFD51460446FDF7D6FE002800F074
:102E70005F81049BC3F380025C0702920AD58849F4
:102E8000F86AFDF72BFD51460446FDF7C5FE002804
:102E900000F04C810422D7F850B05FFA89F953460C
:102EA0000125DA46CB4691467E4E7F490BA8019319
:102EB00004F0E2FF019BBBF1000F00F0E78000226D
:102EC00079490A60B7F84A20D00740F11981002DEE
:102ED00040F019810B9358460222BDF8184003991F
:102EE00079B1002170484160B7F84A10890740F174
:102EF0000E81002D40F00E810C931046BDF81A2073
:102F00001443029A82B10022674901308A60B7F8FF
:102F10004A20C0B2520700F1EF800DB903F100431F
:102F20000D93BDF81C301C43FDF780FC05F0A0FAA2
:102F300001465046A8F80640FDF7D0FC08A90890C5
:102F40000BA801F053F80423DFF860A188F80430DF
:102F500004F04EF803F00AFD15BB04F049F833788D
:102F600013F0340F55D114F0540FF5D103F0EAFEED
:102F7000B7F8540000F05AFD85F00104002D40F030
:102F80009D804B49B86DFDF7A9FC09F1FF3919F097
:102F9000FF090346D7F84CA000F09980254684E746
:102FA0005046FEF7B1F997F84830BDF81A105B06A5
:102FB0005CBF80F4E04080B218B33E4A1388528868
:102FC000184214BF0123002310423A4A18BF43F0AD
:102FD000020392881042BDF8182018BF43F0040382
:102FE000144202D0D80748BF9443214202D09A0726
:102FF00048BF8C43BDF81C20144202D09B0818BF68
:103000009443A8F8064003F0F3FF337813F0340F2D
:10301000A9D03378D806DCB200F18080A1060CD4A8
:1030200085B1630700F18980234B1B78002B40F0AA
:103030008880042004F0A6FF98E7072004F0ACFF86
:10304000002DEED11948FEF75FF997F848305A067F
:103050005CBF80F4E04080B20028E5D0154A1388B8
:103060005288184214BF012300231042114A18BF8E
:1030700043F0020392881042049A18BF43F00403FD
:103080001A42D1D0082004F087FFCDE7584601222C
:103090005C4624E71C050020A4970008140E0020BD
:1030A0000000C0BF4C05002030050020000C01408E
:1030B0000000A0409C9700084A05002009F1FF3954
:1030C00019F0FF09BB6DD7F850A07FF467AF059BDF
:1030D00013B11E4BC3F80090039B13B100231B4A8E
:1030E0005360029B13B10023184A9360002388F8B1
:1030F00004300FB0BDE8F08F002D7FF40FAF0FE765
:10310000002D7FF4E7AE03F100420B92E3E6002DC1
:103110007FF4F2AE03F100410C91EEE6062004F0DC
:103120003BFF7BE74FF0000A094F91E6A246B1E66C
:10313000A2469EE64FF0000A8AE6092004F02CFF22
:1031400072E700F077FB01F0B7FF5EE63005002084
:10315000140E002010B504F0ADFE78B101230C4C24
:103160002078E37008280AD104F002FF01E02378F8
:103170002BB101F0A1FF6378002BF8D010BD00F057
:1031800059FB022004F008FFBDE8104001F094BF95
:103190001C050020F0B5064687B04FF44070FDF7DF
:1031A000BFFD0125252301A8ADF804308DF8075097
:1031B000FDF7C0FD294644F20500FEF74DF94FF436
:1031C0000073ADF8003041F60303184F69463846E6
:1031D000ADF80230FDF704FF4FF48063ADF8003026
:1031E0000423694638468DF80330FDF7F9FE0023C5
:1031F0004FF44022CDE903320D4CADF81430A389D1
:1032000020469BB243F00C03029602A9A381FEF76D
:1032100011FA2A46204640F22551FEF775FA294652
:103220002046FEF763FA07B0F0BD00BF000801407A
:10323000003801402DE9F84F4FF46140FFF7AAFF35
:10324000FDF7F2FDFEF7EEFA4FF0E0210A692B4E92
:1032500022F004020A6102F0E3FD03F04FF903F0EB
:10326000FDFD04F0B7FB00222548264990F84800F0
:103270003270C306C1E900228A6048BF01224FF0C4
:10328000000446F264484FF064071F4DDFF87CB03D
:10329000DFF87CA0DFF87C9048BF32701E4B31789D
:1032A0008BF800408AF8004089F800401C701B4BE6
:1032B000B4601C703460C6E903443170C5E9004451
:1032C0007460A6F80880B772AC6002F0A7FEFEF743
:1032D00041FB03F02DF9FEF735FAFFF7D3FC01F0BF
:1032E00069FB00F045FD03F02DFD01F035F8FEF718
:1032F00047FB02F047F801F0EDFECFE71C05002088
:10330000140E0020300500203C0500204805002058
:103310004C0500204A0500204B05002049050020EF
:1033200042F2283C4FF0E022002101230CFB00F088
:10333000506191611361136903F00113012BFAD0FD
:103340000023136193617047F8B5174E174C96F838
:1033500048200F4691060546237804D5202B0AD035
:10336000FFF7F8FE2378022B05D1F8BD00F074FDBD
:1033700038B101F089FB01F09FFE6378002BF5D096
:10338000F3E73946284600F031FE0028EDD196F8E3
:1033900048309A07E9D53B7ADB06E6D579681020F4
:1033A000BDE8F84003F052BA140E00201C050020BE
:1033B0002DE9F04F8FB09DF864509DF870400D904E
:1033C000019453F825400091204652F82510994663
:1033D0009346FDF77BF903469DF868800BEB850269
:1033E000049209EB850259F82800099209EB88023A
:1033F0005BF828100A920BEB8802059200F1004757
:103400000293FDF763F90346DDF83490029959F809
:1034100025000393FDF758F90399054659F828004C
:10342000FDF752F904F10044804629462046FDF795
:1034300055FA414681463846FDF750FA014648465E
:10344000FDF744F90346414620469846FDF746FA03
:103450000346294638461D46FDF740FA01462846F0
:10346000FDF732F94146189E9DF86CA004F0FEFF6E
:10347000019B0546002B00F0FD80FCF7F1FF96A3B1
:10348000D3E9002380468946FDF7B6F8002840F0CE
:103490001481974B3146D3F83C803046FDF716F93E
:1034A0004146FDF711F94146FDF718FA04F0E0FF37
:1034B0004FF07C5180462846FDF710FA3146FDF763
:1034C0000DFA414620F00040FDF7BCFA04F008FF79
:1034D000FDF706FC83B20193002B00F0C480184670
:1034E000FDF7A8F9DDF80090064699F8088018F075
:1034F000080F40F0D68031462846FDF7A3FA034670
:103500000D9A5BF82A1052F82A001D460B93FDF71E
:10351000DBF83146FDF796FA294606902846FDF776
:10352000DDF901464FF08040FDF7CEF82E46714997
:1035300005463046FDF7D2F94FF081410646284650
:10354000FDF7C4F801463046FDF7C8F90BEB8A09D0
:1035500082464FF07C512846CDF81CA0FDF7BEF9FD
:10356000019B0C90012B7ED0A046012600255C46D5
:1035700040E041460798FDF7B1F9DDF830B08246EA
:1035800039465846FDF7AAF901465046FDF79EF820
:10359000414682465846FDF7A1F9394680460798CC
:1035A000FDF79CF901464046FDF78EF857468046E8
:1035B0000135EDB202994046FDF788F8049B039966
:1035C00018603846FDF782F8059B06991860D9F80F
:1035D0000000FDF77BF80099C9F800002046FFF7CE
:1035E000B3FE454B01365B78002B71D1019AB3B223
:1035F0009A4238D90B2DBCD93046FDF71BF90B99EF
:10360000FDF76CF9804604F033FE0746404604F0AF
:10361000DBFE099B82461B68394603F100480A9B82
:103620004046D3F800B0FDF759F9034651465846D5
:103630000893FDF753F9089B01461846FDF746F835
:103640000346514640469846FDF748F90346394639
:1036500058461F46FDF742F901463846FDF734F853
:1036600000250746A6E700990D980FB0BDE8F04F7A
:10367000FFF76ABEFCF7F4FE19A3D3E900238046E6
:103680008946FCF7AFFF00283FF403AF16A3D3E948
:10369000002340464946FCF785FDFCF7C1FF05467F
:1036A000F7E6D9F800003146FDF718F928F00808C8
:1036B00089F80880C9F800001DE70BA3D3E90023AF
:1036C00040464946FCF76CFDFCF7AAFF0546E0E6DC
:1036D0000FB0BDE8F08F00BF8DEDB5A0F7C6A0BE5E
:1036E0008DEDB5A0F7C6A03E182D4454FB2119401E
:1036F000140E0020ABAA2A3E1C050020074B1B78A5
:10370000022B09D010B5044601F094FD2046BDE817
:103710001040002100F054B9704700BF1C05002084
:1037200008B5FFF7FFFA0120FFF766FB0220FFF75D
:1037300063FB01F0C1FC094B5B7803B108BDFEF7E8
:103740001FF900F009FE4FF4E040FDF767FB4FF46E
:103750008072034BC3F884215A6008BD1C05002009
:1037600000E100E02DE9F0412E4C2378022B27D018
:1037700007460D46164601F05DFD94F80180B8F14C
:10378000000F1AD1C6F3C00084F8058001F034F9A7
:1037900001F046F980BB38462946FFF7D5FD0123E5
:1037A000214D02202B7004F0E3FB01E0237853B19C
:1037B00001F082FC6378002BF8D00220BDE8F08194
:1037C0000020BDE8F0812B78012B1ED0012363710E
:1037D0000020287001F010F901F06EFC03F0B2FA3D
:1037E00000F0C6FA00F0B8FD01F0CAFF60790038B9
:1037F00018BF0120BDE8F081042004F0CDFB01F0EA
:103800005BFC404601F0F8F8D7E7F30605D5074B17
:10381000074A07CA83E80700DAE7052004F0BCFB83
:10382000D6E700BF1C050020480500203C0500200D
:103830003005002008B5144B1B78DB0600D508BD09
:10384000102004F095FB02F011FFFDF7ADFF0F4BC8
:103850001A781B7902F02C0103F006030B43EED01B
:10386000042A06D10A4B1B7853B1BDE8084003F087
:10387000C3B8032004F090FBBDE8084003F0BCB8D7
:10388000062004F089FBF0E74C0500201C05002011
:103890004A0500202DE9F04F0B781746C218C35C8B
:1038A0000E462D2B054683B074D02B2B0ABF5378C0
:1038B00002F1010902F102090022019200221446DC
:1038C000924610460EE00134E4B2082C13D81AB127
:1038D0000AF1FF3A4FFA8AFA00EB800003EB40004E
:1038E00019F8013B303BDBB2092BECD9FE2B09D197
:1038F00042B90122F4E7002AF2D10AF1010A4FFA93
:103900008AFAEDE7002C3DD0FCF790FF00218346BA
:10391000FDF778F968BBBAF1FF3F16DA5446DFF8D5
:10392000948058464146FCF7D9FF023464B2631CC8
:103930008346F6DB5FFA8AFACAF1FE0303F0FE0360
:103940009A440AF1020A4FFA8AFABAF1FF3F27D0E5
:10395000BAF1000F0DD0184C58462146FCF7BEFFB7
:103960000AF1FF3A5FFA8AF383464FFA8AFA002B8C
:10397000F2D1019B53B90124A9EB0505013DC7F81C
:1039800000B03570204603B0BDE8F08F0BF1004069
:103990008346F0E7537802F10209012201928DE794
:1039A00058460649FCF79AFF019B8346002BE2D05C
:1039B000ECE700BF0AD7233C00002041CDCCCC3D32
:1039C00070B50D461749FCF789FF04F00FFCFDF7B1
:1039D00087F980B2A8B1441E4FF6FF76A4B28DB12C
:1039E000114D0BE001F05AF8AB789B0709D4013C6C
:1039F0003220A4B2FFF794FCB44202D06B78002BC3
:103A0000F0D070BD084D08E0013C01F055FBA4B2B8
:103A10003220FFF785FCB442F3D06B78002BF3D053
:103A200070BD00BF0000A0411C05002060B138B58A
:103A30004FF6FF75441EA4B2013C0120A4B2FFF76B
:103A40006FFCAC42F8D138BD704700BF38B50D46A9
:103A50000146FCF743FF294604462846FCF73EFF93
:103A600001462046FCF732FEBDE8384004F000BDB8
:103A700070B50568044600212846FDF7C3F8002804
:103A800043D129462846FCF729FF0021FCF71EFEFA
:103A90000546666800213046FDF7B4F840B9314666
:103AA0003046FCF71BFF01462846FCF70FFE054693
:103AB000A66800213046FDF7A5F840B931463046EA
:103AC000FCF70CFF01462846FCF700FE0546284699
:103AD00004F0CEFC06464FF07E503146FCF7B2FFB4
:103AE000054620682946FCF7F9FE0346294660682A
:103AF0002360FCF7F3FE03462946A0686360FCF7E9
:103B0000EDFE03463046A36070BD0025C1E700BF4F
:103B1000F8B50C462568064600212846FDF772F8E0
:103B200000282FD129463068FCF78CFF20F0004593
:103B300028461849FDF78EF820BB676800213846F3
:103B4000FDF760F858B939467068FCF77BFF074607
:103B500027F0004728463946FDF75EF8B8B1A4685B
:103B600000212046FDF74EF850B92146B068FCF719
:103B700069FF20F0004429462046FDF76BF818B194
:103B80002846F8BD034DD8E725462846F8BD3D46F2
:103B9000E5E700BFFFFF7F7F2DE9F04F704B83B05B
:103BA0001B780193002B00F0B7805C1EE4B26D4BD4
:103BB0001E78A64200F0AD8034276B4D07FB0457FA
:103BC000F969D7F818800846FCF780FD396AFCF7D8
:103BD00085FE074640463946FDF71EF8002800F0EE
:103BE000AE80342303FB0453C3F81480002C00F090
:103BF0009580631E5FFA83FA5C4B5645197800F096
:103C000094804FF03408574608FB045427E0013FE6
:103C1000FFB2B9422BD008FB0959D9F818A0D9F83E
:103C200014005146FCF7EEFFA0B9D9F81C10084665
:103C3000FCF74CFDD9F82010FCF750FE6169FCF749
:103C400045FD044650462146FDF704F800287FD084
:103C5000C9F81440B7420FD05C46444B1978B946B6
:103C600008FB075B002FD2D12327B942D3D103F041
:103C7000A9F93C4B1E78CEE7394B1B780193741C95
:103C8000E4B23423242C08BF002403FB065B019B11
:103C90009C423ED04FF00009342303FB0458DBF86C
:103CA00014A0D8F8147050463946FCF7B5FFB8B1E7
:103CB000DBF81C100846FCF709FDDBF82010FCF7C8
:103CC0000DFE5146FCF702FD834638465946FCF787
:103CD000C1FF28B15F4626464FF00109C8F814B06D
:103CE000342303FB045339469869FCF78BFF631CAC
:103CF000002818BF2646DCB218BF4FF00109242C5B
:103D0000019B28D09C4229D1B9F1000F01D0154B5D
:103D10001E7003B0BDE8F08F232448E74FF0230A5C
:103D2000124B564519787FF46CAF8E42A7D103F041
:103D300049F90C4B1E780A4B1B7801939FE73423FB
:103D4000B84603FB0453C3F81480002CE6D050E7B8
:103D5000C9F814A07EE7002BD6D00024C3469BE709
:103D6000A00C0020A10C002050050020A20C002077
:103D700000234FF0010C0A4A0A4910B40A4881F89E
:103D800000C0C2E90033C2E90233C2E90433074983
:103D9000074C936103700B70237010BC704700BF19
:103DA000A40C0020A30C0020A00C0020A10C0020DB
:103DB000A20C002009490A4B0A781B7893420BD0C9
:103DC000531CDBB2242B08BF002306480B7090F86D
:103DD00000C0944508BF0370704700BFA20C0020CC
:103DE000A00C0020A10C00203420034A034B1278C1
:103DF00000FB0230704700BFA00C002050050020DF
:103E0000054B064A1B7812789A421DBF342204489B
:103E100002FB030000207047A20C0020A00C002031
:103E200050050020094B0A4A1B7812780133DBB297
:103E3000242B08BF00239A4205D03421054A01FBF8
:103E40000323586970470020704700BFA20C002070
:103E5000A00C002050050020044A054B10781B7868
:103E6000C01AB0FA80F04009704700BFA20C0020D1
:103E7000A30C002038B5837CC46ADA0715D5174B2C
:103E8000587AFCF7D7FC1649FCF728FD0146204676
:103E9000FCF724FD044620464FF07E51FCF7DAFE85
:103EA00008B94FF07E54204638BD5B0705460BD459
:103EB0000A4B187AFCF7BEFC0949FCF70FFD0146D6
:103EC0002046FCF70BFD0446AD6A21462846FCF768
:103ED000A3FE0028DFD02C46DDE700BF1C05002034
:103EE0000AD7233C2DE9F04F394A3A4B14781B7816
:103EF00085B09C42019362D0374B34261A7A5B7AA4
:103F00004FF07E58354F364DDFF8D8A0039202931C
:103F100016E039463846FCF7E1FC06FB0457D7F8B3
:103F20002490B8614946FCF795FE08B1C7F818908F
:103F30000134E4B2242C019B3ED09C4241D05F4628
:103F400006FB04539A7CD3F82CB0D1071BD50298FA
:103F5000FCF770FC5146FCF7C1FC01465846FCF7E3
:103F6000BDFC834641465846FCF774FE00B9C34683
:103F700039465846FCF76EFE0028CAD159465846C5
:103F8000FCF7ACFCC9E753070AD40398FCF752FCD2
:103F90005146FCF7A3FC01465846FCF79FFC8346BC
:103FA00006FB0452D2F8289059464846FCF734FEE6
:103FB0000028D7D0CB46D5E71BB10024BFE7DFF8F8
:103FC0001CB0094AC2F818B005B0BDE8F08F00BFB8
:103FD000A20C0020A00C00201C050020FFFF7F7F0A
:103FE000500500200AD7233CA40C00200B463422A5
:103FF0002DE9F04F1D460446A64991B00E78039373
:10400000A54B029602FB06360021304604F0E6F886
:104010002B7A6A68B3749B0732634CBF9F4AA04AED
:1040200007AB07CA9B4683E807003423221F1446C8
:10403000994902989B4D03FB0019DFF86CA20DF122
:1040400010080AAF54F8041F2868FCF747FC04F076
:1040500089F902465BF8043B48F8042BC01A80EA51
:10406000E072A2EBE07246F8042BD9F80C309342D0
:1040700038BF1346C9F80C300193FCF7DBFB55F849
:10408000041BFCF7DFFC002147F8040BFCF7C4FD20
:10409000019B30B1B9F81020BAF800100A43A9F812
:1040A0001020824A0AF1020AAA42CBD11BB9184653
:1040B00011B0BDE8F08F0AA8FFF7DAFC34240346FC
:1040C000754A029D0AA904FB052479482362FFF77B
:1040D0001FFD0AA9E0617548FFF71AFDA57CA062E3
:1040E000EF077ED4039B2E071968E16276D4714BEB
:1040F000684A1B7812789A4201D0AC0777D53423EE
:1041000065490298002203FB001301465A615A6276
:104110003423614A03FB01239A7C900763D4D107BF
:10412000DD6A00F1A48053070BD4634B187AFCF7C7
:1041300081FB6249FCF7D2FB01462846FCF7CEFB27
:10414000054634230298544A294603FB00239C6AFF
:104150002046FCF761FD00B1254628464FF07E5110
:10416000FCF778FD08B94FF07E554D4C2946A669FD
:104170003046FCF751FD002800F08680314630467D
:10418000FCF7ACFB014634230298434A03FB0029A9
:10419000D9F82460C9F818103046FCF73DFD08B185
:1041A000C9F81860464A3B491378A5610B70013382
:1041B000DBB2242B08BF0023424D13700AAB93E8F7
:1041C000070004AB85E8070093E8070084E80700D0
:1041D000FFF7E2FC012011B0BDE8F08F206AFCF788
:1041E0007DFBE06283E7012011B0BDE8F08F2C4D2C
:1041F0000A9EEF6830463946FCF770FB0146002006
:10420000FCF762FA394604463046FCF75DFA2F693E
:104210000B9E39460D903046FCF760FB0146204668
:10422000FCF752FA394604463046FCF74DFA6E69FF
:104230000C9D0E9029463046FCF750FB0146204667
:10424000FCF742FA314604462846FCF73DFA1E497F
:104250000F902046FCF7FEFC002837D034230022C4
:104260000D49029803FB001301465A6250E7124BB6
:10427000587AFCF7DFFA1149FCF730FB0146284673
:10428000FCF72CFB054668E729462846FCF726FB89
:10429000014678E7A00C00205005002030050020E2
:1042A000A40C0020140E002094970008200E00207B
:1042B0002C0E0020A20C00201C0500200AD7233C55
:1042C000A30C0020B00C0020EFFF7F3F20461D49CB
:1042D000FCF7A2FC10B134231B4AC1E70DA8FFF77D
:1042E000C7FB0DA91948FFF713FC214605464FF0FF
:1042F0007E50FCF7E9F94FF07C51FCF7EFFA04F03F
:10430000B7F80446124B2846996BFCF7E7FA2146AA
:10431000FCF7E4FA034621464FF07E501C46FCF7BA
:10432000D3F901462046FCF78DFB00210446FCF73B
:1043300073FC00B100243423064A029903FB0123D5
:104340005C62E5E6EFFF7FBFFFFF7F7F2C0E002062
:10435000140E002050050020044A054BD2E901014B
:1043600012689960C3E90020704700BF3005002043
:10437000A40C0020054A064B10781B7883422CBF02
:10438000233000F1FF30C01AC0B27047A20C0020E9
:10439000A00C002008B502F015FE044A044B127868
:1043A0001A70BDE80840FFF7F7BB00BFA20C002061
:1043B000A10C002010B50446007828B101F032FDB0
:1043C00014F8010F0028F9D110BD00BF6328F8B51B
:1043D00004461DD91B4EA6FB0035EF08A6FB073689
:1043E000F60806F1300006EB8606A7EB460601F05C
:1043F00019FD06F13000C0B201F014FD07EB870093
:10440000A4EB40003030C0B2BDE8F84001F00ABD76
:10441000092806D804F13000C0B2BDE8F84001F028
:1044200001BD0A26B4FBF6F505F13000C0B201F07B
:10443000F9FC06FB1540BDE8F8403030C0B201F091
:10444000F1BC00BFCDCCCCCCF0B50D4685B0002181
:104450000646FCF7E1FB002840F0D180012D40F238
:10446000D6802C466F4F30463946FCF737FA023C6F
:10447000E4B2012C0646F6D805F0010323B130461C
:104480006949FCF72BFA06464FF07C513046FCF7A1
:104490001DF9FCF7FFFB002800F0BB800024634FF0
:1044A00022460146A7FB0043DB0803EB8306A0EB93
:1044B000460000F13006184604AB541C09291A4482
:1044C000E4B202F8106CEBD8A54271D93022631C1B
:1044D000DBB204A921449D4201F8102C60D9A11C33
:1044E000C9B204A818448D4200F8102C58D904A869
:1044F000014401F8102CE11CC9B2A94250D2014478
:1045000001F8102C211DC9B2A94249D2014401F879
:10451000102C611DC9B28D4242D9014401F8102C02
:10452000A11DC9B28D423BD9014401F8102CE11DF7
:10453000C9B28D4234D9014401F8102C04F10801AC
:10454000C9B28D422CD9014401F8102C04F10901A3
:10455000C9B28D4224D9014401F8102C04F10A019A
:10456000C9B28D421CD90144302004F10B02D2B2F1
:10457000954201F8100C13D904A90A4402F8100C52
:1045800004F10C02D2B295420AD90A4402F8100C86
:1045900004F10D02D2B2954284BF521802F8100CF9
:1045A0006A1E141B9D4238BF0024234403F0FF04FD
:1045B000A5421CD06CB16F1E0DEB0406FFB2A542E4
:1045C00009D016F8010D013C01F02CFC14F0FF0499
:1045D000F5D105B0F0BD2E2001F024FC16F8010D38
:1045E00001F020FC3C46002FE9D105B0F0BD30229F
:1045F00004AB6C1C2B44E4B203F8102CDAE72D203A
:1046000001F010FC012D06F100463FF62AAF2B46C3
:1046100034E70446002D7FF459AF302301248DF890
:104620000030C8E70000C84200002041CDCCCCCC0F
:1046300070B5864B86B093F8484014F001046BD0F7
:104640008349FCF74BF900210546FCF7E5FA002801
:1046500040F0DF807F492846FCF740F97D49FCF7B0
:104660003DF94FF07C51FCF731F8FCF713FB0028C3
:1046700000F0DB800023784E19460446A6FB00328A
:10468000D20802EB8205A0EB450000F13005104690
:1046900006AA4B1C0A44092CDBB202F8105CEBD8CA
:1046A000032B23D830208C1CE4B206AA1A44042C15
:1046B00002F8100C00F0C3800331C9B206AA2244EC
:1046C000042902F8100C00F0BE80302206A808442D
:1046D000022900F8102C01D18DF80B20042CC3F115
:1046E000030388BF0023234403F0FF03042B06BF0A
:1046F000302205239DF80C208DF80C205C1E06AAA4
:10470000042B2244E5B272D012F8100C01F08AFB9F
:10471000002D5FD02B46F1E700210546FCF77CFA1F
:1047200000286FD14B492846FCF7D8F84B49FCF7D5
:10473000D5F84FF07C51FBF7C9FFFCF7ABFA034605
:10474000019000286BD0444E21461846A6FB034238
:10475000D20802EB8205A3EB450303F130051346B3
:1047600006AA4C1C0A440928E4B202F8105CEBD8F3
:10477000022C1AD830220231C9B206AB23440329D5
:1047800003F8102C59D006AB0B44012903F8102C68
:1047900057D1302301218DF80A300329C4F10204D6
:1047A00088BF0024214401F0FF04032C06BF3023FE
:1047B00004249DF80B308DF80B30651E06AB032CDE
:1047C0002B44EEB208D013F8100C01F02BFB0EB105
:1047D0003446F2E706B070BD2E2001F023FB06AB95
:1047E0001D4415F8100C01F01DFB3446E5E72E20A2
:1047F00001F018FB06AB1C4414F8100C01F012FB7E
:104800002B467BE72D2001F00DFB05F1004005460E
:1048100088E72D2001F006FB05F100451AE730235B
:104820008DF808308DF80930B3E7302202210346B5
:104830008DF808208DF8092047E70224ADE703230F
:104840004CE70221A9E7032448E700BF140E00202B
:104850008B42213D0000C842CDCCCCCC0000204191
:104860002DE9F0414F4B84B093F8484014F0010417
:104870004ED04D49FCF732F800210446FCF7CCF944
:1048800000287ED149492046FCF728F84FF07C519A
:10489000FBF71CFFFCF7FEF9B8B10024444D22469B
:1048A0000146A5FB0043DB0803EB830CA0EB4C00A7
:1048B00000F1300C184604AB541C09291A44E4B228
:1048C00002F810CCEBD8002C64D1302302241A4615
:1048D0008DF800306E466FEA06088DF801203444EA
:1048E0000DF1010708EB040514F8010D01F09AFA27
:1048F000A6423CD0A742F5D12E2001F093FA04AB9A
:104900001D4415F8110C04B0BDE8F04101F08ABA5D
:1049100000210546FCF780F960BB4FF07C5128462A
:10492000FBF7D4FEFCF7B6F988B3214D22460146C9
:10493000A5FB0043DB0803EB830CA0EB4C0000F16C
:10494000300C184604AB541C09291A44E4B202F88E
:1049500010CCEBD8DCB19DF800306D468DF80030FE
:104960002C4414F8010D01F05DFAA542F9D104B010
:10497000BDE8F0812D2001F055FA05F10040054613
:10498000CBE72D2001F04EFA04F100447AE7302302
:104990000124E2E7012C06BF302202249DF8012009
:1049A00098E700BF140E00208B42213D00002041FB
:1049B000CDCCCCCC10B5012182B00820FCF74CFD49
:1049C0004FF4007444F60303084801A9ADF804400D
:1049D000ADF80630FCF704FB054A064B92F9482077
:1049E000002AB8BF00241C8002B010BD000C01409A
:1049F000140E0020C00C002000230749074A91F93B
:104A0000481013809942AABF4FF400714FF400730D
:104A1000118000B113807047140E0020C00C0020DC
:104A200008B50548FCF770FC044B00F400701B88C7
:104A3000181A18BF012008BD000C0140C00C00204E
:104A400010B50B48FCF760FC0A4B00F400701B88A3
:104A500083420CD000200849084C094B094A0870D1
:104A600007CA83E80700237843F04003237010BD92
:104A7000000C0140C00C0020480500204C0500201F
:104A80003C0500203005002008B5FFF7B9F920B13A
:104A9000BDE80840022003F06BBA08BD70B5A84B12
:104AA0001B78002B40F0B080A64CA74D2B7803F06C
:104AB000FF05002B5CD0E80600F10381E90700F157
:104AC0002B8115F0E80F34D023786EB29A072AD1E3
:104AD00013F0280F00F01281A27812F0C00F00F03E
:104AE000938105F0400205F0080112B1980640F1EB
:104AF000B28119B113F0E00F00F07681A90612D54A
:104B0000062000F0E1FB94F90220A378002A07DBDD
:104B10002278402A00F09781802A01D0402222701A
:104B200043F02003A370002EC0F21681E82003F0AA
:104B300029FAA80719D515F0680F13D12378402B4F
:104B400000F03D81002B40F0288100232371FFF706
:104B500057F920B1A37813F0400300F065810023DA
:104B6000A3702370022003F00DFA690700F1AC80F6
:104B7000764B1B7803F0FF05002B67D1744B1B7835
:104B800003F0FF0523B9237813F0FC0F38D170BD73
:104B900003F02EFAA27A15F0010F0CBF134664231E
:104BA000AE0744BF0A33DBB2680744BF0A3BDBB23F
:104BB000290744BF0133DBB2EE0644BF03F1FF33E4
:104BC000DBB2C82B28BFC8230A2B38BF0A239A425E
:104BD00006D000212279A37242F0080323712173C9
:104BE00005F0C002AD0623781ED5102B1CD1E17A4A
:104BF000002940F0ED800221E172002A40F0B280ED
:104C0000BDE8704002F0F4B9012603F0FF054D4CF9
:104C10002846013D267000F041FBB54240F28280FB
:104C2000494D03F0C1F941E7002AADD0002B40F017
:104C30009980484E357A690640F1998005F0BF05A4
:104C40002846FCF7B7FD237835729DE703F0C8F9D5
:104C5000217A15F0010F0CBF0B466423AE0744BF49
:104C60000A33DBB2680744BF0A3BDBB22E0744BFFE
:104C70000133DBB2E80644BF03F1FF33DBB2C82BDC
:104C800028BFC8230A2B38BF0A23607A15F0200FEB
:104C900014BF6422024615F0400F18BF322215F0EF
:104CA000800F18BF1922994202D182423FF466AFA9
:104CB0000021237262722173FFF714F9FFF76AFB78
:104CC0005CE70123637070BD2278A37812F0D00FE7
:104CD00094F9021002D0E278002A4BD000294BDB75
:104CE00013F0200229D0402203F07F0343F0010398
:104CF000A3702270042003F045F939E705F0400263
:104D000005F00801002B7FF4F0AE0120A070002A0E
:104D100067D04122A270ECE600F096FE012003F07D
:104D200031F9CEE6304600F0CFFA102003F02AF930
:104D3000054D2B78DE06FCD573E7A2702270D9E70B
:104D40004A0500201C0500204C0500204B050020D2
:104D500049050020D80400202378012B18D0802397
:104D60002370E3E613F0180F3FF40EAF61E745F050
:104D7000400565E700293ADA00232371FEF7F8FFC2
:104D800001F0E0FFFCF7FCFDFFF7E6FAA378A7E7E8
:104D9000A37843F00503A370E1E7DA067FF5E2AEFE
:104DA000A278D0077FF5DEAE102B7FF4CEAEE37A8B
:104DB000002B3FF4CAAE43F00803E372D2E6A378B7
:104DC00013F020027FF4CEAED90635D52270BCE6B2
:104DD000C80702D541F00401E172002A7FF429AF2F
:104DE0000EE700293FF48AAE1023237086E6FFF712
:104DF000D1FA23799A0703D5A27842F00102A27072
:104E000023F00603237175E702F0DCF80222237811
:104E10002271202B7FF472AF002EFFF662AEA278D3
:104E200062F07F02A2705CE60822A370227002F09A
:104E3000DFF801F09BFD95E65E077FF593AE43F04A
:104E40000803A3708EE61A077FF568AE23F01C03F3
:104E500043F0020362E6A27842F04002A27048E604
:104E60002DE9F04F83B0FEF7CBFF002800F0E4807F
:104E7000867CD0F830808D4F97F848309C0700F141
:104E8000C980DFF82CB29BF80240002C4AD00025E4
:104E90004FF07E594FF0814A9BF80120002A41D102
:104EA000E00739D59BF8001011F0C0003DD014F098
:104EB000040463D0802900F0D680402900F09E8051
:104EC0009BF80230190727D57A4C03F00202617A69
:104ED000002900F08680FAB997F84820920773D528
:104EE0009BF80420217A42F008028BF8042061B17B
:104EF00006F04000FCF75EFC01214846FEF760FD2D
:104F00009BF8023003F0020232B943F01003022092
:104F10008BF8023003F02CF8FFF7C0FD9BF802403D
:104F2000002CB9D103B0BDE8F08F9BF80B307BB1FA
:104F30009C073CD55F4B5B7A002B6FD100238BF82D
:104F40000B30FFF7ABFD9BF80240002CA4D1E9E742
:104F50009BF804301B07DFD5414606F0300001F016
:104F6000E7FB9BF8043023F008038BF80430FFF7CD
:104F700095FD9BF80240002C8ED1D3E729462046B0
:104F80008BF80B4001F0D4FB2046FCF713FC9BF898
:104F9000023023F0020343F004038BF80230FFF7E2
:104FA0007DFD9BF80240002C7FF476AFBAE713F04A
:104FB0000C0FB1D03F4A527A002A44D11A07BDD50E
:104FC000022002F0D5FFB9E7414606F0300001F0BB
:104FD000AFFB01215046FEF7F3FC9BF8023003F0D3
:104FE0000202217A00298FD0002A81D0FFF756FDD6
:104FF0009BF80240002C7FF44FAF93E702F06CFD6A
:105000009BF8023000287FF45DAF03F0DF038BF8DC
:10501000023057E7202002F0D9FF32E7294601F09D
:1050200087FB01238BF80B30FFF738FD9BF802401C
:10503000002C7FF431AF75E71E4B5E7A1A7AD3F8F5
:105040000C80164317E70A2000F03EF997F8483025
:10505000990723D59BF8043043F008038BF80430FC
:105060009BF80B30AAE70B20019200F02DF9019A72
:105070000021104601F05CFB019A1046FCF79AFBF8
:1050800001F0BAFC9BF80130002B7FF44BAFFFF727
:1050900005FD9BF80130002BF9D043E7414606F0AF
:1050A000300001F045FB9BF80B3087E7140E002021
:1050B0001C050020D804002008B5FFF7EFFC044BC6
:1050C0009B7803B908BDBDE80840FFF7C9BE00BF23
:1050D0001C050020F8B5534B93F848301A0700F12F
:1050E0008780514E337813F081036BD0022000F09B
:1050F000EBF801233370002425464C4F00F09EFE50
:10510000FF280ED00A281AD00D2818D07DB32928E0
:10511000F4D1AB07F2D500F091FEFF2805F0FD05B4
:10512000F0D1FEF76DFE10B1022002F021FFFFF773
:10513000B5FCB378A3BB7378002BDFD0F8BDFFF7C5
:10514000ADFCB378FBB97378002BF7D115F00105EE
:105150003B551BD13C78FCB1242C2AD0347814F078
:10516000210420D0092000F081F82C46C6E7202831
:10517000C4D92F28C2D0282822D03B2836D04E2C84
:1051800028D90125BAE7FFF76BFEDCE71C460B20A8
:1051900000F06CF82546B1E7204600F067F8ADE76F
:1051A000FFF75EFEC7E73846FCF7F2FB00F05EF85B
:1051B000A4E7384602F0B6FC00F058F82C469DE70C
:1051C00002259BE7337002F087FCE8B9174802F02C
:1051D00085FC90E72146A0F16103DBB2192B04F1B5
:1051E000010298BF2038D4B2785487E7042585E7B8
:1051F000FDF7A0FD00283FF474AF01230A4E0720FD
:10520000337000F061F86DE7094A137843F020032A
:105210001370FFF743FCB378002BD7D0FFF720FEC5
:10522000D4E700BF140E00201C050020C40C002091
:105230004C05002010B5FEF7E3FD10B1022002F08E
:1052400097FE094CFFF72AFCA3784BB9637833B972
:10525000FEF7D6FD0028F5D12378082BF2D010BD3B
:10526000FFF7FEFDF2E700BF1C05002010B908485B
:10527000FFF7A0B810B504460648FFF79BF8204694
:10528000FFF7A4F8BDE810400348FFF793B800BF4C
:105290009C950008A4950008AC95000810B504463C
:1052A0000748FFF787F82046FFF790F80548FFF713
:1052B00081F8BDE810404FF4FA70FEF7B7BB00BFAD
:1052C000B0950008AC95000810B504462048FFF7DB
:1052D00071F8601E0A280AD8DFE800F01115191DC0
:1052E0002125292D313506001A48FFF763F85D2086
:1052F00000F098FDBDE810401748FFF75BB817486D
:10530000FFF758F8F3E71648FFF754F8EFE71548AA
:10531000FFF750F8EBE71448FFF74CF8E7E71348BE
:10532000FFF748F8E3E71248FFF744F8DFE71148D2
:10533000FFF740F8DBE71048FFF73CF8D7E70F48E6
:10534000FFF738F8D3E70E48FFF734F8CFE700BF90
:10535000B89500085C960008AC950008C095000858
:10536000D4950008E8950008FC950008049600080C
:10537000109600081C9600082C9600083496000829
:10538000489600080148FFF715B800BF6896000866
:105390000148FFF70FB800BF889600082DE9F04FCD
:1053A000DD4C83B0242094F8305000F03BFD002009
:1053B000FFF70CF83D2000F035FD2846FFF706F812
:1053C000D648FEF7F7FF242094F8365000F02AFD67
:1053D0000120FEF7FBFF3D2000F024FD2846FEF7EC
:1053E000F5FFCE48FEF7E6FF2420658E00F01AFD9B
:1053F0000220FEF7EBFF3D2000F014FDE8B2FEF7BF
:10540000E5FFC648FEF7D6FF2420A58E00F00AFD72
:105410000320FEF7DBFF3D2000F004FDE8B2FEF7BD
:10542000D5FFBE48FEF7C6FF94F84850242000F090
:10543000F9FC0420FEF7CAFFC5F380053D2000F00B
:10544000F1FC2846FEF7C2FFB448FEF7B3FF94F81C
:105450004850242000F0E6FC0520FEF7B7FFC5F316
:1054600080153D2000F0DEFC2846FEF7AFFFAB487C
:10547000FEF7A0FF94F84850242000F0D3FC06204B
:10548000FEF7A4FFED093D2000F0CCFC2846FEF716
:105490009DFFA248FEF78EFF242094F8375000F0BD
:1054A000C1FC0A20FEF792FF3D2000F0BBFC28461D
:1054B000FEF78CFF9948FEF77DFF2420A56B00F0D6
:1054C000B1FC0B20FEF782FF3D2000F0ABFC032176
:1054D0002846FEF7B9FF9148FEF76CFF2420E56BE4
:1054E00000F0A0FC0C20FEF771FF3D2000F09AFCBC
:1054F00003212846FEF7A8FF8848FEF75BFF94F8D3
:105500004850242000F08EFC0D20FEF75FFF05F0D0
:1055100001053D2000F086FC2846FEF757FF7F4836
:10552000FEF748FF94F84850242000F07BFC14203C
:10553000FEF74CFFC5F340153D2000F073FC2846F4
:10554000FEF744FF7548FEF735FF94F848502420D5
:1055500000F068FC1520FEF739FFC5F3C0053D20BB
:1055600000F060FC2846FEF731FF6C48FEF722FF92
:1055700094F84850242000F055FC1620FEF726FF32
:10558000C5F300153D2000F04DFC2846FEF71EFF38
:105590006248FEF70FFF2420B4F84A5000F042FCA6
:1055A0001720FEF713FF3D2000F03CFCE8B2FEF7A9
:1055B0000DFF5A48FEF7FEFE2420E56C00F032FC99
:1055C0001820FEF703FF3D2000F02CFC03212846A5
:1055D000FEF73AFF5148FEF7EDFE2420256D00F05E
:1055E00021FC1920FEF7F2FE3D2000F01BFC0321F8
:1055F0002846FEF729FF4948FEF7DCFE2420B4F8D0
:10560000545000F00FFC1A20FEF7E0FE3D2000F0A1
:1056100009FCE8B2FEF7DAFE4048FEF7CBFE242094
:10562000A56D00F0FFFB1B20FEF7D0FE3D2000F033
:10563000F9FB03212846FEF707FF3848FEF7BAFEBC
:105640002420256C00F0EEFB1E20FEF7BFFE3D205F
:1056500000F0E8FB00212846FEF7F6FE2F48FEF793
:10566000A9FE2420656C00F0DDFB1F20FEF7AEFED6
:105670003D2000F0D7FB00212846FEF7E5FE274835
:10568000FEF798FE242094F8484000F0CBFB202041
:10569000FEF79CFEC4F340043D2000F0C3FB20460F
:1056A000FEF794FE1D48FEF785FE00274FF06408C4
:1056B000DFF86CA0DFF864900024022F04F10104ED
:1056C0004546154E5FFA87FBE4B22BD0BBF1030FC2
:1056D0003BD02420BBF1010F14BF3368F368019362
:1056E00000F0A0FB2846FEF771FE3D2000F09AFB7B
:1056F000019B03211846FEF7A7FE4846FEF75AFE17
:10570000032C16D001350134022F06F10406EDB248
:10571000E4B2DBD106E000BF140E0020AC95000817
:10572000000061455146B069FBF78CF9034624201F
:10573000D5E708F10A085FFA88F8B8F18C0F07F18D
:105740000107B9D103B0BDE8F08F736A242003F1DB
:105750000043019300F066FB2846FEF737FE3D202C
:1057600000F060FB019B59461846FEF76DFE484667
:10577000FEF720FE032CC5D103B0BDE8F08F00BFBB
:1057800000B5134885B0FEF715FE124901A802F0D6
:1057900073FB0198FEF74CFF2C2000F043FB0298AE
:1057A000FEF746FF2C2000F03DFB0398FEF740FF7C
:1057B0003A2000F037FB084B5879FEF707FE5D20D2
:1057C00000F030FB0548FEF7F5FD05B05DF804FB81
:1057D000D49600083C0500201C050020AC9500086C
:1057E0002DE9F0410125564EDFF85881564F86B01D
:1057F0006C1EE4B26946204600F002FD002800F06D
:1058000092803046FEF7D6FD062C00F08880072CEB
:1058100065D14E48FEF7CEFD3A2000F003FB00981C
:10582000FEF706FF2C2000F0FDFA0198FEF700FFBE
:105830002C2000F0F7FA0298FEF7FAFE5D2000F047
:10584000F1FA434C4048FEF7B5FD4248FEF7B2FD81
:10585000606BFEF7EDFE2C2000F0E4FAA06BFEF783
:10586000E7FE2C2000F0DEFAE06BFEF7E1FE5D20A3
:1058700000F0D8FA3448FEF79DFD3748FEF79AFD50
:10588000206CFEF7D5FE5D2000F0CCFA2E48FEF726
:1058900091FD3248FEF78EFD314903A802F0ECFA83
:1058A0000398FEF7C5FE2C2000F0BCFA0498FEF722
:1058B000BFFE2C2000F0B6FA0598FEF7B9FE3A209C
:1058C00000F0B0FA274B5879FEF780FD5D2000F01C
:1058D000A9FA1D48FEF76EFD06B0BDE8F08105F19E
:1058E0003500C0B2FEF772FD3A2000F09BFA009836
:1058F000FEF79EFE2C2000F095FA0198FEF798FE28
:105900002C2000F08FFA0298FEF792FE5D2000F046
:1059100089FA01353846FEF74DFDEDB268E740469D
:10592000FEF748FDE0E71048FEF744FD0720FEF7CC
:105930004DFD0548FEF73EFD06B0BDE8F08100BF15
:10594000DC960008E0960008AC950008E496000894
:10595000D8040020E8960008F0960008D4960008C5
:105960003C0500201C050020A495000838B505461C
:105970000C460848FEF71EFD2846FEF727FD3D2091
:1059800000F050FA2046FEF715FDBDE83840024809
:10599000FEF710BDF8960008AC95000838B505462E
:1059A0000C463E2000F03EFA2846FEF703FD3A2062
:1059B00000F038FA24B9BDE838400748FEF7FABCD1
:1059C0000648FEF7F7FC2046FEF700FDBDE838402C
:1059D0000348FEF7EFBC00BF9C950008A4950008A3
:1059E000AC95000838B504461448FEF7E3FC144DA6
:1059F0002046FEF7DFFC5D2000F014FA2846FEF793
:105A0000D9FC1048FEF7D6FC562000F00BFA5A20BD
:105A100000F008FA2C2000F005FA2320FEF7D6FC4F
:105A20002C2000F0FFF9FE20FEF7D0FC5D2000F0F6
:105A3000F9F92846BDE83840FEF7BCBCFC960008E2
:105A4000AC95000810970008F0B59B4A8BB001ABED
:105A500007CA9A4C83E80700194604A802F00CFA1A
:105A60003C2000F0DFF92378202B7CD8202B2AD88B
:105A7000DFE813F06D017901690129007101290046
:105A80002900290075012900290029002900290081
:105A900029002900210029002900290029002900C6
:105AA00029002900290029002900290029002900AE
:105AB00029002900260094F90230002B80F2798118
:105AC0007F48FEF777FC7F4E96F83730D90757D5D9
:105AD000637B002B00F0C9807B48FEF76BFC0498C9
